:020000040801F1
:10000000F81C002049010108AD0F0108790B010817
:10001000A90F010857090108F115010800000000A7
:10002000000000000000000000000000CD120108E8
:100030009109010800000000F50F0108D112010824
:10004000630101086301010863010108F90F010858
:10005000630101086301010895090108B909010854
:10006000DD090108010A0108250A010863010108E8
:1000700063010108630101086301010863010108CC
:1000800063010108630101086301010863010108BC
:100090006301010863010108630101084D0A0108B9
:1000A000630101086301010863010108630101089C
:1000B000630101086301010863010108630101088C
:1000C000630101086301010863010108630101087C
:1000D0006301010835140108111501088115010893
:1000E000630101086301010863010108630101085C
:1000F000630101086301010863010108630101084C
:100100006301010863010108151401086301010876
:10011000630101086301010863010108630101082B
:10012000630101086301010863010108630101081B
:10013000DFF810D000F0C2FB00480047AD460108D0
:10014000AFF30080F81C00200648804706480047AF
:10015000FEE7FEE7FEE7FEE7FEE7FEE7FEE7FEE777
:10016000FEE7FEE7DD1201083101010840EA010364
:100170009B0703D009E008C9121F08C0042AFAD25D
:1001800003E011F8013B00F8013B521EF9D2704721
:10019000D2B201E000F8012B491EFBD270470022C9
:1001A000F6E710B513460A4604461946FFF7F0FF76
:1001B000204610BD10B5044604E00B7800F8013B62
:1001C00003B1491C521EF8D2204610BD421C10F843
:1001D000011B0029FBD1801A704780EA010210B58B
:1001E00002F00043400022D04A001FD0010E01EB74
:1001F0001261C0F35600C2F3560240F4000042F40C
:100200000002A0FB022000047F39140400D0401C2F
:1002100050EA124001D44000491EC2B20C0604EB61
:10022000D010401C4008802A02D003E0002010BDFE
:1002300020F00100002900DA0020184310BD30B47E
:1002400080EA010202F0004530F0004221F0004057
:1002500013D090B1C30DD40DC2F31601C0F3160034
:10026000E41A41F4000140F400027D34914201D3CC
:10027000641C00E04900002C02DA30BC002070470A
:100280004FF400000023914201D3891A0343400830
:100290004FEA4101F7D151B1914202D14FF00041F3
:1002A00005E002D24FF0010101E06FF0010103EB24
:1002B000C450284430BC00F03DBA2DE9FE4F8046C2
:1002C00081EA0300C00F0C46009021F0004123F0AA
:1002D0000045B8EB0200A94105D2404621469046B0
:1002E0001C460B46024623F00040104347D0270D22
:1002F000C7F30A00C3F30A510290401A0190402844
:100300006BDAC3F3130040F4801B0098924620B1CF
:100310000023D2EB030A63EB0B0B01985946C0F1A3
:100320004002504600F0E5F906460D465046594653
:10033000019A00F0EDF910EB08006141002487EA12
:10034000115284EAE7731A4340D0009A62B3019ACB
:10035000012A4FEA075215DC001B61EB02014FF046
:10036000004202EA0752CDE90042001C41F580112B
:1003700032462B4600F024FA03B0BDE8F08F404629
:100380002146F9E7001B61EB0201001C41F58013D7
:1003900000185B412018A2F5001747EB030140EA63
:1003A000D570B6196D4111E06D084FEA360645EA81
:1003B000C0754FEA0752001B61EB0201001C41F5BA
:1003C000801149084FEA30000019514132462B464E
:1003D00003B0BDE8F04F00F0E4B9009801224000FE
:1003E0000023D0EB020263EBE073009821464FEA52
:1003F000E074B8EB000061EB0401E9E783F000432F
:100400005BE781F0004158E72DE9FE4F81EA0304E4
:1004100004F0004421F0004100944FF0000B23F061
:10042000004350EA01045ED052EA03045BD0C3F3F8
:100430000A54C1F30A552C44A4F2F3340194A0FBEE
:100440000254C1F3130141F48011C3F3130343F4C5
:10045000801301FB024400FB034E840A970A44EA1E
:10046000815447EA8357A4FB076802958D0A05FB70
:1004700007854FEA932C04FB0C542705029D4FEA95
:10048000065847EA1637B5EB08056EEB070C870EE2
:10049000920E47EA811742EA8312A7FB0201B6EBEC
:1004A0000B0164EB00042B0D43EA0C335E1844EBA4
:1004B0001C50DA465146E7FB0201C5F313044FEA2C
:1004C0000B3343EA14534FEA0432019C43EA060318
:1004D000A4F10C040294009CCDE900B400F070F982
:1004E00003B0BDE8F08F00200146F9E72DE9F04D9B
:1004F00081EA030404F0004B21F0004514464FF05C
:10050000000A23F0004150EA050220D054EA01021B
:100510001DD0C5F30A570246C5F31303C1F31300F8
:10052000C1F30A5640F4801543F48013A7EB060884
:10053000101BD64608F2FD3873EB050002D308F114
:10054000010801E092185B41B8F1000F03DA0020C6
:100550000146BDE8F08D00204FF480110646844628
:100560000EE0171B73EB050705D3121B63EB0503A6
:1005700006434CEA010C49084FEA300092185B41EF
:1005800050EA0107EDD152EA030012D082EA0400DA
:1005900083EA0501084305D0101BAB4106D20122B6
:1005A000002306E000224FF0004302E06FF001025A
:1005B00053101AEB06004CEB085110EB0A0041EB0C
:1005C0000B01BDE8F04D00F0ECB896230022114677
:1005D00000F0B9B800F0004220F00040C10DC0F3B7
:1005E000160040F400007F2901DA002070479629A8
:1005F00003DCC1F19601C84001E096398840002A29
:10060000F4D04042704700F0004230F000400AD081
:10061000C10D01F56071C0F3160042EA0151C20834
:1006200040071143704700200146704701F0004326
:1006300030B421F0004150EA010206D00A0DA2F5C3
:100640006072C1F31301002A02DC30BC0020704745
:10065000440F44EAC104C100E01830BC00EBC250B2
:1006600000F068B830B50B46014600202022012476
:1006700009E021FA02F59D4205D303FA02F5491B70
:1006800004FA02F52844151EA2F10102F1DC30BD86
:100690002DE9F05F0546002092469B4688460646B7
:1006A000814640241BE0284641464746224600F04A
:1006B00017F953465A46C01A914110D311461846AD
:1006C000224600F016F82D1A67EB01084F46224625
:1006D0000120002100F00DF817EB00094E41201E0B
:1006E000A4F10104DFDC484631462A464346BDE812
:1006F000F09F202A04DB203A00FA02F10020704724
:100700009140C2F1200320FA03F31943904070474F
:10071000202A06DBCB17203A41FA02F043EAE073C5
:1007200006E041FA02F3D040C2F1200291400843B2
:10073000194670470029A8BF7047401C490008BFF0
:1007400020F00100704710B4B0FA80FC00FA0CF001
:1007500050EA010404BF10BC704749B1CCF1200439
:1007600021FA04F411FA0CF118BF012121430843C6
:10077000A3EB0C01CB1D4FEA00614FEA102042BFF2
:10078000002010BC704700EBC35010440029A4BFE8
:1007900010BC7047401C490008BF20F0010010BC8D
:1007A000704710B5141E73F1000408DA401C41F1C3
:1007B000000192185B411A4301D120F0010010BDE5
:1007C0002DE9F04D92469B4611B1B1FA81F202E05B
:1007D000B0FA80F220329046FFF78BFF04460F46B6
:1007E00040EA0A0041EA0B0153465A46084313D037
:1007F000114653EA010019D0C8F14002504600F0FA
:100800006FF805460E46504659464246FFF771FFBF
:10081000084305D0012004E020463946BDE8F08DAC
:100820000020054346EAE0762C4337430A986305E7
:10083000E40AA0EB08000022FD0A44EA47540A300B
:1008400002D500200146E9E7010510196941DDE9FB
:10085000084500196941BDE8F04DA2E7C1F30A520D
:10086000C1F3130140F2FF3341F480119A4202DADE
:1008700000200146704740F233439A42A2F23342CD
:1008800002DC524200F02CB8FFF733BF30B5041E33
:1008900071F1000404DB4FF00044404264EB0101BD
:1008A000141E73F1000405DB1C464FF00043524256
:1008B00063EB0403994208BF904230BD064C074DDC
:1008C00006E0E06840F0010394E807009847103420
:1008D000AC42F6D3FFF730FCFC6A01081C6B010840
:1008E000202A04DB203A21FA02F00021704721FA85
:1008F00002F3D040C2F120029140084319467047EC
:1009000070B58C1810F8015B15F0070301D110F8D1
:10091000013B2A1106D110F8012B03E010F8016BFE
:1009200001F8016B5B1EF9D12B0705D40023521E81
:100930000DD401F8013BFAE710F8013BCB1A921CE9
:1009400003E013F8015B01F8015B521EF9D5A142E7
:10095000D8D3002070BD00BFFEE7000070B502468E
:100960000B460020002100BF0CE004124FF6FF757B
:1009700005EA0020555C6540EDB2044E36F815508E
:100980006840491C9942F0DB70BD000090030020D4
:1009900000BFFEE710B5012002F05EFE40B1054841
:1009A000407810B9012003494870012002F04EFE42
:1009B00010BD00004406002010B5022002F04CFEDD
:1009C00040B1022002F042FE0348407A10B90121F2
:1009D0000148417210BD00004406002010B50420FB
:1009E00002F03AFE40B1042002F030FE0348407CA1
:1009F00010B901210148417410BD000044060020D7
:100A000010B5082002F028FE40B1082002F01EFEBA
:100A10000348407E10B901210148417610BD000015
:100A20004406002010B5102002F016FE50B1102030
:100A300002F00CFE044890F8210018B90121024888
:100A400080F8211010BD00004406002010B52020C1
:100A500002F002FE58B1202002F0F8FD164890F88E
:100A6000290018BB0121144880F8291022E04020F9
:100A700002F0F2FD58B1402002F0E8FD0E4890F877
:100A8000310098B901210C4880F8311012E0802023
:100A900002F0E2FD58B1802002F0D8FD064890F83F
:100AA000390018B90121044880F8391002E003A088
:100AB00000F0BAFE10BD000044060020657874699D
:100AC00020696E740A00000001B500200099C1F38E
:100AD00009021AB1012202EB912000E0880A08BD48
:100AE0002DE9F0410E46234F3A683F1D3D683F1DFA
:100AF0003B680D27B2FBF7FC07FB1C2123FA01F72B
:100B00000770077807F0FE07077007780FB9FE2710
:100B100007701D27B2FBF7FC07FB1C2123FA01F726
:100B2000477082EA050424FA01F787701527B2FBA3
:100B3000F7FC07FB1C2182EA030424FA01F7C770C3
:100B40001B27B2FBF7FC07FB1C2183EA050424FAF0
:100B500001F7077101EB810707EB41174FF0130C09
:100B6000B7FBFCF80CFB187123FA01F74771BDE8DD
:100B7000F0810000E8F7FF1F00BFFEE710B540213D
:100B80000D4803F06FFA8023032210210A4803F076
:100B9000E1FA8021084803F065FA142001F0F2FF21
:100BA0004021054803F060FA142001F0EBFF4021DA
:100BB000014803F057FA10BD000C014010B5402168
:100BC0000D4803F04FFA8023032210210A4803F056
:100BD000C1FA8021084803F047FA142001F0D2FF3F
:100BE0004021054803F040FA142001F0CBFF4021DA
:100BF000014803F037FA10BD000C014070B50546FE
:100C0000002400F0A9FA00261AE04021114803F060
:100C100029FA142001F0B6FF40210E4803F024FA0F
:100C20004FF6FF7000EA440480210A4803F0E8FA16
:100C300008B1601C84B2142001F0A4FF701CC6B27D
:100C4000082EE2DB15B9FFF7B9FF01E0FFF796FFC9
:100C5000204670BD000C014070B5044600F08AFAD1
:100C60004021154803F0FEF900251FE0E00920B1FE
:100C70008021114803F0F8F903E080210E4803F0C9
:100C8000F1F96006040E142001F07CFF40210A48AF
:100C900003F0EAF9142001F075FF4021064803F043
:100CA000E1F9142001F06EFF681CC5B2082DDDDBF0
:100CB000142001F067FF70BD000C014010B500F07A
:100CC00059FA80210A4803F0CFF94021084803F07F
:100CD000CBF9142001F056FF8021054803F0C2F93A
:100CE000142001F04FFF4021014803F0BBF910BD73
:100CF000000C014010B500F03DFA40210A4803F015
:100D0000B1F98021084803F0ADF9142001F03AFF51
:100D10004021054803F0A8F98021034803F0A4F915
:100D2000142001F02FFF10BD000C014010B500246D
:100D300000F012FA8021114803F096F90A2001F020
:100D400021FF40210D4803F08FF90A2001F01AFF1E
:100D500007E0601CC4B2FA2C03DDFFF7CBFF0120D3
:100D600010BD8021054803F04BFA0028F1D1402145
:100D7000024803F077F90020F2E70000000C014080
:100D800070B50446002503F08BFAC4F3074000F069
:100D900010F8C4F3072000F00CF804F0F80000F09D
:100DA00008F8002000F005F8054603F07EFA284612
:100DB00070BD10B50446204600F05CFA10BD70B559
:100DC00004460D4603F06CFAC4F30740FFF7F1FF49
:100DD000C4F30720FFF7EDFF04F0F801091DC8B2C6
:100DE000FFF7E7FF2846FFF7E4FF03F05EFA70BD68
:100DF00010B500F063F80A2001F0C4FEFF210920BD
:100E000000F0F8FB0A2001F0BDFE03210A2000F0EB
:100E1000F1FB0A2001F0B6FE07210B2000F0EAFBEF
:100E20000A2001F0AFFE01210C2000F0E3FB0120BD
:100E300001F0A8FE01210F2000F0DCFB4FF4487008
:100E400001F09AFE00210F2000F0D4FB012404E001
:100E5000E0B20A2100F0CEFB641C092CF8DB10BDC7
:100E60003EB50020009001900290002406216846C3
:100E7000FFF736FE104890F833008DF806000E4854
:100E8000808E000A8DF807000B4890F834008DF82A
:100E90000800E8208DF80900CF208DF80A000B210A
:100EA000684602F0E5FD04460348C08EA04201D129
:100EB00001203EBD0020FCE7BA07002010B540F23B
:100EC000026004F051F940F2036004F04DF9202370
:100ED000032210210E4803F03DF94FF40043032292
:100EE00010210C4803F036F908230322102108488A
:100EF00003F030F94FF40041064803F0B5F8202123
:100F0000034803F0AFF80821014803F0ABF810BD27
:100F1000000C01400008014010B50821014803F011
:100F2000A3F810BD000C014010B50821014803F0E2
:100F300099F810BD000C014010B54FF40041024873
:100F400003F092F810BD00000008014010B54FF406
:100F50000041024803F086F810BD0000000801407F
:100F600010B52021014803F07FF810BD000C0140AE
:100F700010B52021014803F075F810BD000C0140A8
:100F800010B540F2026004F0EFF84FF480530322F2
:100F90001021044803F0DEF84FF48051014803F0BB
:100FA00063F810BD0008014000BFFEE700BFFEE788
:100FB00010B5002807DA0A07140E054A00F00F03DF
:100FC0001B1FD45403E00A07130E024A135410BD2A
:100FD00018ED00E000E400E00146087800064B78D8
:100FE00040EA03408B7840EA0320CB7840EA0302D2
:100FF0001046704700BFFEE710B5012004F0B4FBB7
:10100000A0B1012004F0A8FB01200949086009A053
:1010100000F00AFC04F0B4FB04F084FB06498842AB
:1010200004D1002004F088FB04F0AAFB10BD0000EE
:101030008C0300202B000000805101002DE9F04FAF
:1010400089B00446FFF73AFE8020FFF705FEFFF760
:101050006DFE00286ED12046FFF7FEFDFFF766FE0D
:10106000002867D100BF082001F08CFDFFF726FEA5
:101070008120FFF7F1FDFFF759FE0128F3D0012091
:10108000FFF7BCFDC6B20120FFF7B8FD00F0FF0975
:101090000020FFF7B3FDFFF72DFE09F0FC0949EA38
:1010A0000625F52C22D12846FFF78FFA2249039016
:1010B000FFF793F84FF08F410490FFF7C0F80590C9
:1010C000FFF7A1FA824600221C4BFFF797F907466B
:1010D000FFF7ACFA07901A490798FFF77EF80790D8
:1010E0000798FFF777FA09B0BDE8F08F2846FFF7B9
:1010F0006CFA0190FFF787FA0746124A124BFFF786
:1011000083F90022114BCDE90201FFF7EFF9824686
:101110000F4A104BFFF772F9CDE90401FFF786FA89
:10112000069007490698FFF758F806900698FFF7CB
:1011300051FAD8E70020D6E70000FA420000184034
:101140000000C842D7A3703D0AF765400000F04098
:10115000CDCCCCCCCC6C474010B5802303220421ED
:10116000034802F0F7FF8021014803F049F810BD61
:10117000000C014010B5802303221021014802F029
:10118000E9FF10BD000C014010B540F2036003F010
:10119000EBFF8023032210210E4802F0DBFF4023E7
:1011A000032210210B4802F0D5FF802303221021D7
:1011B000084802F0CFFF402303221021054802F027
:1011C000C9FF8021034802F04FFF4021014802F08F
:1011D00049FF10BD000C014010B5F520FFF72EFFB0
:1011E0000446204610BD10B5F320FFF727FF044644
:1011F000204610BD00B587B040F2026003F0B4FF96
:1012000040F20C6003F0B0FFA0230322182116481F
:1012100002F0A0FF402303220421134802F09AFFAA
:101220004FF4807303221021104802F093FF002036
:1012300001904FF4827000900020029003200590EE
:101240004FF400700390002006900490694608480F
:1012500004F049FE0721064804F02CFE044804F07F
:101260002FFE07B000BD000000080140000C014047
:101270000030014070B504464FF4805505E0281E4B
:10128000A5F1010501D1FF2070BD02210E4804F037
:1012900022FE0028F3D021460B4804F01AFE4FF43A
:1012A000805505E0281EA5F1010501D1FF20EBE7DF
:1012B0000121054804F00FFE0028F3D0024804F095
:1012C00004FEC0B2E0E700000030014000BFFEE7CE
:1012D00010B503F05FF801F043FC10BD08B53048CD
:1012E000006840F001002E49086000BF2C480068EB
:1012F00000F002000028F9D000BF2948406840F003
:101300008000274948600020009002E00098401CBF
:10131000009000985028F9D32148406840F0900090
:101320001F4948600020009002E00098401C009097
:1013300000985028F9D300BF1948406820F00300F6
:101340001749486008460068164908401449086073
:10135000084640681449084011494860084600683A
:10136000104908400E4908600846006820F48020B3
:101370000860084640680D49084009494860084629
:10138000006808490840064908604FF41F0088605B
:1013900004F0DAFE00214FF0006003F09BFC08BD72
:1013A00000100240FFFFF6FE0C00FFE8FFFF00F711
:1013B0001FB540F2037003F0D7FE144804F06AFF33
:1013C0006946124804F0DEFF7720ADF800000020E7
:1013D000ADF80200ADF804004FF47A7002900020DE
:1013E000ADF80C008DF80E006946094804F0CAFFFC
:1013F00001221146322003F00DFC0121044805F0C2
:1014000031F8034804F0B9FF1FBD0000002C014073
:10141000000C004010B50121054805F02AF828B15C
:1014200004F0BEFE0121024805F020F810BD0000C6
:10143000000C004070B52849284805F0FFF8002846
:1014400033D02549254805F0F0F8244805F066F822
:101450000446234800887F2803DB002020490880B9
:1014600070BDA1B21E4804F053FC1D4800881D4900
:10147000097888422DD11CA000F0D6F919480278CD
:101480001749891C1D48FEF771FE002505E01B4821
:10149000415D1BA000F0C8F96D1C12480078854220
:1014A000F5DB00200E49088013E017490B4805F0D2
:1014B000C5F8012804D11449084805F0B6F808E039
:1014C00012480068401C114908600F49034805F0A4
:1014D000ACF800BFC4E70000050305000038014078
:1014E000B0160020180000204A595F44414D5F416A
:1014F000325F524553503A200A0000000406002093
:10150000253032582000000005030300940000201D
:1015100008B51649164805F091F888B113491448E2
:1015200005F083F8124804F0F9FF009011480078A4
:10153000012819D105220121684603F050FD13E06E
:101540000D490B4805F07AF8012804D10A490848EA
:1015500005F06BF808E009480068401C074908607E
:101560000549034805F061F808BD000005030500C2
:1015700000440040660000200503030090000020A6
:1015800008B51649164805F059F888B113491448AA
:1015900005F04BF8124804F0C1FF009011480078A4
:1015A000012819D106220121684603F018FD13E035
:1015B0000D490B4805F042F8012804D10A490848B2
:1015C00005F033F808E009480068401C0749086046
:1015D0000549034805F029F808BD0000050305008A
:1015E000004800406600002005030300900500202D
:1015F00000BFFEE770B505460C46FFF7A7FC0120CB
:1016000001F0C0FA284600F009F8204600F006F87C
:10161000012001F0B7FAFFF78FFC70BD70B50446EA
:10162000FFF794FC082515E0FFF77EFC04F080002E
:1016300010B1FFF795FC01E0FFF79AFC022001F0E2
:10164000A1FAFFF769FC022001F09CFA6006040E83
:10165000681EC5B2012DE7DA70BD00000FB430B5C9
:10166000ADF5017D044600254FF4807141A8FEF7D9
:1016700096FD4FF4807101A8FEF791FD092C07D06B
:101680001B48007820B10DF5017D30BC5DF814FBDE
:1016900086A8009041A8009A859900F0E9F80020FA
:1016A000009034B941AA13A101A800F0CDF8054675
:1016B00017E0012C06D141AA12A101A800F0C4F83C
:1016C00005460EE0092C06D141AA0AA101A800F0A6
:1016D000BBF8054605E041AA0DA101A800F0B4F849
:1016E000054601A90AA000F09FF800BFCBE7000063
:1016F000500000205B44454255475D2D2D3E20257E
:10170000730000005B4552525D2D2D3E2025730075
:10171000257300002DE9F04186B032480468001DB1
:101720000768001D06680D20B4FBF0F100FB1145B1
:1017300026FA05F02C4908700846007800F0FE00F3
:1017400008700846007808B9FE2008701D20B4FB18
:10175000F0F100FB114526FA05F02349487084EAB0
:10176000070828FA05F088701520B4FBF0F100FB9B
:10177000114584EA060828FA05F01B49C8701B20A9
:10178000B4FBF0F100FB114586EA070828FA05F0E2
:101790001549087105EB850000EB45101321B0FBDE
:1017A000F1F201FB120526FA05F00F4948710846CF
:1017B000407909790C4AD2780B4B9B78CDE90232FB
:1017C000CDE90410084840780749097833463A467D
:1017D000CDE90010214605A000F026F806B0BDE8CE
:1017E000F0810000E8F7FF1F18020020555549441A
:1017F0003A253038583A253038583A253038582C60
:10180000204D41433A253032783A253032783A2516
:101810003032783A253032783A253032783A2530ED
:1018200032780D0A000000000FB4054B10B503A973
:10183000044A029800F000F910BC5DF814FB0000A7
:1018400061390108000600200FB4084B10B504A947
:1018500002AA039800F0F0F8044602A9002000F064
:101860006EFC204610BC5DF814FB00003F2101080F
:1018700037B514460846064B6A46214600F0DCF8A8
:1018800004466946002000F05AFC20463EBD000098
:101890003F21010802E008C8121F08C1002AFAD13E
:1018A00070477047002001E001C1121F002AFBD1E0
:1018B000704700002DE9FF5F82B00021DDE90430B0
:1018C000020DDDF840B0034318D044F61050A2F2E8
:1018D000FF3242431514119801281FD0A5EB0B00CD
:1018E000401C5FEA000A4FF000064E4FDFF83891C7
:1018F000B046504615D5CAF1000413E011980124F2
:101900004AA3012801D16FEA0B010298119AC0E99C
:101910000031C0E9024206B0BDE8F09FCBF1000003
:10192000DFE704460021404A491842EB0450CDE964
:10193000001012E0E00707D032463B4640464946D9
:10194000FEF762FD8046894632463B461046194600
:10195000FEF75AFD06460F466410002CEAD1DDE979
:101960000401DDE90023BAF1000F06DAFEF74CFDB1
:1019700042464B46FEF748FD05E0FEF7B7FD4246FE
:101980004B46FEF7B3FD04460E460022284BFEF7F9
:101990007DFF03D84FF0FF30014607E00022254BC2
:1019A00020463146FEF789FCFEF758FF102409E077
:1019B000002C0ADB0A220023FEF76AFE039B30326A
:1019C0001A55641E50EA0102F2D1641C039AC4F154
:1019D00011031444119A012A03D0012208430DD1A6
:1019E0000AE0084304D000204FF0110B119072E779
:1019F000A3EB0B056D1E0DE05B4504DD4FF000020F
:101A000005F1010504E003DA4FF00002A5F101053C
:101A1000002AECD002981199C0E90231C0E90045D2
:101A200079E70000000014400000F03F30000000A3
:101A30000000F0430000E03F2DE9FF4F95B09A46CB
:101A4000884606460025EEE1252877D10024274662
:101A5000F94A0121039400E0044316F8013F203BBA
:101A600001FA03F01042F7D130782A2811D06FF034
:101A70002F033078A0F13002092A16D8039A44F0D7
:101A8000020402EB820203EB42021044761C039034
:101A9000EFE758F8042B0392002A03DA504244F48B
:101AA0000054039044F00204761C30782E2816D19E
:101AB00016F8010F44F004042A280DD06FF02F020D
:101AC0003078A0F13003092B09D807EB870302EB2C
:101AD0004303C718761CF3E758F8047B761C30786C
:101AE0006C280FD006DC4C2817D068280DD06A2847
:101AF00014D104E0742810D07A280FD10DE044F4FA
:101B000000140AE044F4801401E044F440147278B4
:101B1000824202D104F58014761C761C3078662847
:101B20000BD013DC582877D009DC002875D0452865
:101B3000F6D04628F4D047281AD193E118E063285C
:101B400035D0642879D0652812D18BE1702873D004
:101B500008DC6728F1D069286FD06E280DD06F2877
:101B600006D1ACE073282CD0752874D0782853D0D7
:101B70005246179990476D1C54E1C4F30250022855
:101B800009D003280DD0D8F8001004280DD00D601E
:101B900008F1040846E1D8F80010EA17C1E900523C
:101BA000F6E7D8F800100D80F2E70D70F0E718F8AE
:101BB000041B8DF8001000208DF80100EB46012079
:101BC00003E058F804BB4FF0FF3061074FF000010D
:101BD00002D40DE009F101018946B9420FDA8145CD
:101BE000F8DB1BF809100029F4D108E009F1010124
:101BF00089468142FADB1BF809100029F6D10398C7
:101C00005346A0EB090721463846179A00F080FAA0
:101C1000284400EB090507E044E008E10DE01BF86B
:101C2000010B524617999047B9F10109F7D2534673
:101C300021463846179AF2E039E00A21C4F30252ED
:101C40004FF0000B0091022A06D058F8040BC11780
:101C5000032A09D00AE023E008F1070020F0070278
:101C6000F2E80201904605E000B2C117042A01D152
:101C700040B2C117002906DA0A460021404261EB52
:101C800002012D2202E0220504D52B228DF804202A
:101C9000012203E0E20701D02022F7E7914657E056
:101CA0000A2100E010214FF0000B00910BE0102101
:101CB0004FF0000B44F004040827009103E00820D3
:101CC0004FF0000B0090C4F30252022A05D058F8DE
:101CD000040B0021032A08D008E008F1070020F0D7
:101CE0000702F2E80201904603E080B2042A00D124
:101CF000C0B24FF0000922072AD53278702A07D0E7
:101D0000DDF800C08CF0100C5CEA0B0C05D00EE086
:101D100040228DF80420012208E050EA010306D099
:101D200030238DF804308DF8052002229146009B67
:101D300083F0080353EA0B030AD150EA010201D1F0
:101D4000620705D530228DF804204FF001097F1E6F
:101D50003278582A04D039A20C920CAA02920BE0D5
:101D60003BA2F9E75B46009AFEF792FC0C9B9B5C5A
:101D7000029A521E0292137050EA0102F2D10298A6
:101D800004A9081A00F1200B600702D524F480345E
:101D900000E001275F4502DDA7EB0B0000E000201B
:101DA00000EB0B01009003984944401A0390E003B4
:101DB00006D453462146179A039800F0A9F9054422
:101DC000002706E001A85246C05D179990476D1C98
:101DD0007F1C4F45F6DBE0030CD553462146179A8E
:101DE000039800F095F9054404E030205246179915
:101DF00090476D1C0099481E00900029F5DC08E012
:101E00000298029952460078491C0291179990470E
:101E10006D1CBBF10001ABF1010BF1DC5BE100F0EB
:101E200065F90544761C307800287FF40DAE19B0B2
:101E30002846BDE8F08F0000092801003031323318
:101E400034353637383961626364656600000000F6
:101E500030313233343536373839414243444546E0
:101E600000000000600700D4062708F1070020F0FA
:101E70000700F0E80223804603F0004C5FEA0C0004
:101E800001D097A009E0200501D596A005E0E00764
:101E900001D095A001E0AFF24C001390307823F010
:101EA000004365280CD006DC452809D046281DD003
:101EB00047287FD13BE0662818D067287AD136E0E2
:101EC0000021112F01DB112000E0781CCDE9000179
:101ED00004A90CA8FFF7EEFCDDE90D010C9A4FF008
:101EE000000B07F10109109200914EE04FF0004005
:101EF0000097CDE9011004A90CA8FFF7DBFCDDE990
:101F00000D020C9B0F994FF0000B9146109300921D
:101F100011B9791C00EB0109B7EB090003D4C0F13A
:101F2000FF3B07F10109A9EB0700019042E0012FF7
:101F300000DA01270021112F01DD112000E03846D1
:101F4000CDE9000104A90CA8FFF7B4FCDDE90D01FF
:101F50000C9A00914FF0000BB946109221070FD454
:101F6000009A4A4503DA914601E0A9F10109B9F165
:101F7000010F05DD109AA9F10101515C3029F4D05F
:101F8000B84202DA10F1040F03DA0121CDE90110A1
:101F900010E0002803DC8344A9EB000102E0411CAF
:101FA000494500DD8946A0EB0B00401C01904FF035
:101FB00000400290200705D40198484502DB4FF00D
:101FC000FF30019000208DF84B0002980DF14B0777
:101FD000B0F1004F25D002200C902B200D900298DC
:101FE00000280CDA404202902D200D9007E00A21D3
:101FF0000298FEF737FB3031029007F8011D0C996B
:10200000481E0C900029F2DC02980028EFD1791EBE
:102010000D980870307800F0200040F0450007F877
:10202000020D11A8C01BC01D02901398007800B1CA
:10203000012000EB0901019801EBE07102980144D5
:102040000398401A401E0390E00306D453462146ED
:10205000179A039800F05CF805441398007818B1BB
:102060005246179990476D1CE00323D553462146ED
:10207000179A039800F04CF805441BE0BBF1000FE1
:1020800007DB0098584504DD1098179910F80B00ED
:1020900001E0179930205246904701980BF1010B4F
:1020A000401E05F10105019004D12E2052461799DA
:1020B00090476D1CB9F10001A9F10109DEDC05E0D2
:1020C00017F8010B5246179990476D1C0299481E4C
:1020D00002900029F4DC53462146179A03989EE6A5
:1020E0002D0000002B000000200000002DE9F04131
:1020F000044600251E461746880404D405E03946E8
:102100002020B0476D1C641EF9D52846BDE8F0813B
:102110002DE9F041044600251E469046C80301D52E
:10212000302700E02027880404D505E041463846E2
:10213000B0476D1C641EF9D52846BDE8F0810A68D9
:10214000531C0B601070704710B50246002000232E
:1021500004E0D45C0444A0B25C1CE3B28C1E9C423C
:10216000F7DC040A8B1ED4544B1ED05410BD000063
:102170002DE9FE4304460D46002037490860012042
:1021800036490860072D1AD120785A2817D160786F
:10219000A8B9A0795A2812D131A103C9CDE901010A
:1021A0003148407F002805DD40F2F6222FA10020B3
:1021B000FFF754FA072101A803F0C8FB49E0072DF7
:1021C00047D120785A2844D16078042841D1A07999
:1021D0005E283ED129A207CA8DE807004FF00A0900
:1021E000FFF701F880B20A2190FBF1F086B2FEF70A
:1021F000F3FF80B20A2190FBF1F087B230128DF824
:102200000400F0B28DF8050038128DF80600F8B21F
:102210008DF807006846FFF797FF80464FEA1821C0
:10222000A9F102000DF8001008F0FF01A9F101006A
:102230000DF800100C48407F002805DD4FF4437274
:1022400011A10020FFF70AFA0A21684603F07EFB7D
:1022500000BF0020BDE8FE83080000200C00002025
:102260005A00AAAAAA025800BA0700204C696E6B4D
:1022700020746573742C204C256400005A040000FF
:1022800000000000000000004765742048756D697B
:102290006469747920262074656D702C204C256447
:1022A000000000002DE9FE4304460D46002037499A
:1022B0000860012036490860072D1AD120785A2875
:1022C00017D16078A8B9A0795A2812D131A103C9D1
:1022D000CDE901013148407F002805DD40F21E3282
:1022E0002FA10020FFF7BAF9072101A802F07CFC1A
:1022F00049E0072D47D120785A2844D16078042836
:1023000041D1A0795E283ED12BA207CA8DE80700F3
:102310004FF00A09FEF767FF80B20A2190FBF1F047
:1023200086B2FEF759FF80B20A2190FBF1F087B226
:1023300030128DF80400F0B28DF8050038128DF8D7
:102340000600F8B28DF807006846FFF7FDFE8046EC
:102350004FEA1821A9F102000DF8001008F0FF0162
:10236000A9F101000DF800100C48407F002805DDA0
:1023700040F2363213A10020FFF770F90A216846B7
:1023800002F032FC00BF0020BDE8FE830800002000
:102390000C0000205A00AAAAAA025800BA0700207E
:1023A0007273323332204C696E6B20746573742CF7
:1023B000204C2564000000005A04000000000000CA
:1023C0000000000072733233322047657420487574
:1023D0006D696469747920262074656D702C204CB9
:1023E000256400002DE9F04FA1B004460D464021C0
:1023F00011A8FDF7D4FE00260020F0490860012056
:10240000EF490860EF48007800281AD10E2D19D145
:102410002079FF2816D16079FF2813D1607A01282E
:1024200010D102206072E848407F002805DD4FF49B
:10243000EB72E6A10020FFF711F90E21204603F010
:1024400085FAC6E20E2D14D12079FF2811D16079CA
:10245000FF280ED1607A05280BD10E22214611A843
:10246000FDF784FE062060720E21204603F06EFA0E
:10247000AFE2102D01D00E2D4BD1A079812848D18B
:10248000E079012845D10121002001F061FD40F2F1
:10249000E512D7A10020FFF7E1F87820DB490860BA
:1024A0000E22DB4911A8FDF761FED4F80A00CDF831
:1024B0004E004120D7490876312048762E20887674
:1024C00031200877202048778877C87781F8200066
:1024D00081F8210081F8220081F8230081F824008E
:1024E00081F8250081F8260081F8270081F829006D
:1024F00081F82A0081F82B0081F82C002D220DF1A3
:102500005200FDF733FE3B26314611A803F01EFAB8
:102510005FE20E2D70DDA07981286DD1E07903286E
:10252000FBD12022BC4909A8FDF720FE40F216226B
:10253000BAA10020FFF792F8002003E00021BE4A74
:102540001154401CBD4909788842F7DBD4F80A00D1
:10255000CDF82E000121084601F0FAFCB8A103C90C
:10256000CDE90701082107A802F03EFB4FF4C8702F
:1025700000F002FBB048007801283ED1AE48407818
:1025800004283AD1AC48C0798DF81400AA48007AE2
:102590008DF81500A848407A8DF81600A648807A74
:1025A0008DF8170005A8FEF717FD82465046FEF786
:1025B0002AF8CDE902019DF8170000909DF8163029
:1025C0009DF815209DF814109FA0FFF72DF9504697
:1025D000FEF719F807463A460B46A6A106A8FFF7EC
:1025E00033F906A8FDF7F2FD07463A4606A90DF1B4
:1025F0003600FDF7BBFD07E020E0A0A0FFF714F9CF
:10260000172109A803F0A2F906A8FDF7DFFDC0B263
:102610008DF8350006A8FDF7D9FD0E30C0B28DF853
:1026200027009DF8270000F10409494609A803F096
:102630008DF90021012001F08BFCCAE10E2D7CDD1B
:10264000A079922879D1E0790F28FBD178206F49C1
:1026500008600E228D4911A8FDF788FDD4F80A0004
:10266000CDF84E008A480168CDF8521000798DF8F7
:1026700056001326301F000A8DF84600301FC0B2E6
:102680008DF8470083A0FFF7CFF84FF0000A06E06F
:1026900014F80A1083A0FFF7C7F80AF1010AAA4547
:1026A000F6DB82A0FFF7C0F814F83E0F3038C7B24F
:1026B0006078303800F0FF08A078303800F0FF096B
:1026C000E078303800F0FF0B20793E3C3038C0B263
:1026D000109027B1012F06D0022F0CD107E008205F
:1026E00003F02AFC07E0092003F026FC03E00A209F
:1026F00003F022FC00BF00BFB8F1000F06D0B8F114
:10270000010F07D0B8F1020F0CD107E0052003F04C
:1027100013FC07E0062003F00FFC03E0072003F0A2
:102720000BFC00BF00BFB9F1000F07D0B9F1010FDA
:1027300008D0B9F1020F0DD108E0CDE00B2003F075
:10274000FBFB07E00C2003F0F7FB03E00D2003F098
:10275000F3FB00BF00BF4534607830382178303952
:1027600000EB012052490860E0783038A178303918
:1027700000EB01204F490860607930382179453CF1
:10278000303900EB01204C4908600846006849498F
:102790000968CDE9001046484FF4237247490368A1
:1027A0000020FEF75BFF0848407F002804DD1098FA
:1027B000334640F28E2283E089E0000008000020CA
:1027C0000C000020E8020020BA07002053656C6569
:1027D000637420726571756573742D2D3E53656E3B
:1027E0006420746F204541502C204C25640000006B
:1027F000533146312D2D3E53656E6420746F204554
:1028000041502C202D2D25640A000000EC020020F0
:10281000F002002000030020F06901085331463324
:102820002D2D3E53656E6420746F204541502C2041
:102830002D2D256400000000040600201800002053
:1028400001040032001050094A592D44414D204FD7
:1028500075747075743A2025325820253258202519
:10286000325820253258202C20252E336620560A37
:1028700000000000252E3366560000004E6F2072C7
:102880006573706F6E73650A000000005C030020C2
:102890006A03002053313846313520446174610D9C
:1028A0000A00000020253032780000000D0A0000E8
:1028B000300000203400002038000020B46A0108F5
:1028C00046A18DE8800B04900020FEF7C7FEB1B250
:1028D00011A803F03BF87CE0112D21D1A0798228CA
:1028E0001ED1E07915281BD1A07A0006E17A40EAD2
:1028F0000140217B40EA0120617B40EA010794F816
:102900001080384602F058FE4248407F002806DD1D
:10291000434640F29A2240A10020FEF79FFE58E075
:10292000A079822820D1E07911281DD1A07A000653
:10293000E17A40EA0140217B40EA0120617B40EAE4
:10294000010794F810800E2239A1384602F0B2FD3A
:102950003048407F002806DD434640F2A5222EA1E4
:102960000020FEF77BFE34E0A07992281ED1E079AA
:1029700009281BD13248D4F80A10C0F80A10E078B0
:1029800000F00F073846F91707EB5171C910A7EB94
:10299000C1018FB21F48407F002806DD002340F2AE
:1029A000B32228A11846FEF759FE12E0A07992281A
:1029B0000FD1E079482802D0E079492809D115489B
:1029C000407F002805DD40F2BA2224A10020FEF756
:1029D00045FE002021B0BDE8F08F0000533138469D
:1029E00031362D2D3E53656E6420746F2045415065
:1029F0002C202D2D25642C68656D736C656E3A2531
:102A000064202C25643A25643A25643A25643A25E5
:102A100064000000BA0700204C5F256420747261D6
:102A2000636B4D6F64653A253032580A0000000030
:102A300032303234313032333134323231390000D5
:102A40002D0300204C5F256420524649445F414ECF
:102A500054454E4E413A25640A0000004C5F2564FF
:102A6000205331384637320A0000000010B50748BD
:102A70000068012806D10648016806A0FEF7D4FECA
:102A8000002010BD4FF0FF30FBE700000C000020DD
:102A9000080000202564200A0000000010B504464C
:102AA0004FF4847101EB44101021FEF788F900BF48
:102AB0004FF4847101EB4410FEF762F90028F7D15E
:102AC0004FF4027101EB4410FF21FEF778F910BDBD
:102AD00010B506480068172807D1022001F037F822
:102AE000172802D1022000F065F810BDA4000020D4
:102AF00070B505460E461446134803F019FD2146ED
:102B0000114803F0C3FC00210F4803F0D3FD00215E
:102B10000D4803F0BFFD00210B4803F0ABFD002181
:102B2000094803F06BFD0021074803F05DFD042117
:102B3000054803F0A7FD0821034803F0B3FD024850
:102B400003F03EFD70BD00000048004003490860EE
:102B500000BF024909680029FBD17047000000202E
:102B60000448006820B103480068401E014908601D
:102B7000704700000000002010B504462046FFF713
:102B8000E5FF10BD10B54FF0E0239969074B1B68B6
:102B9000074CB3FBF4F303FB00F200E000BF4FF07F
:102BA000E0239B69CB1A9342F8D310BD9800002014
:102BB00040420F0010B504464FF4847101EB4410FD
:102BC0000821FEF7FCF800BF4FF4847101EB4410BC
:102BD000FEF7D6F80028F7D110BD00002DE9F0412E
:102BE0000024022000F0B3FF002869D0132876D01B
:102BF000172802D01C2879D15EE0022000F074FF73
:102C000000F0010018B10121022002F099FF172005
:102C100038490860022000F070FF041E4BD00025E8
:102C2000A2B23549022002F0D9FA344800682044A3
:102C30003249086030480078FF2809D03048407F8A
:102C4000002804DD2C4801782EA0FEF7EDFD4DE0B4
:102C500000252DE02848465D0027304800887F2861
:102C600005DB00202D490880084603F059F82B4861
:102C7000008818B9FF2E01D0BDE8F0813146274801
:102C800003F046F825480088052810DD234801791F
:102C9000C07841EA0020801D87B220480088B842F1
:102CA00005D11E480188801C03F042F800276D1CE6
:102CB000A542CFD300BF19E00220FFF77BFF15E04C
:102CC0000220FFF7EBFE202344F6216201210220BF
:102CD00003F04AF800200749086007E0FFE70220F8
:102CE00001F0E8FB13200349086000BF00BF00BFEC
:102CF000C2E70000A4000020840600209C00002001
:102D0000BA070020696E76616C696420636F6D6D2F
:102D1000616E643A2530325800000000AC15002086
:102D200038B500200090012000F011FF00287DD070
:102D300013287CD0172802D01C2879D1A6E00120C6
:102D400000F0D2FE00F0010088B100F087FD40F2F3
:102D5000053000F0E1FC4FF4417000F0DDFC40F282
:102D6000023000F0D9FC0121084602F0E9FE012002
:102D700000F0C3FE0090002836D00098042835D11A
:102D80005148007888BB04225049012002F026FAFD
:102D90004E480068FDF798FE4D49086000204D49F7
:102DA00008600EE04C4909684C4A1288494B1B6880
:102DB00002FB031000F0D6FC46480068401C454961
:102DC000086044480068424909688842EAD3012003
:102DD0003D49087004223D4902F0F8FC40A0FEF78E
:102DE00023FD01203F4908704FE0FFE74FF0FF351A
:102DF000009882B23C49012002F0F0F93BA0FEF7B6
:102E000013FD00240CE0384801593348006800F0F5
:102E100047FD054630480068001D2F490860241D05
:102E200000988442EFD33248006802E02FE044E08B
:102E300047E0009908442E490860042269460120B1
:102E400002F0C4FC2A4800682049096888421BD166
:102E50000120FFF7AFFE1D4800882649C8830120E6
:102E600081F82000AA20088703F038FD22A0FEF791
:102E7000DBFC02201B490870002400E0641CB4F550
:102E80007A7FFBD302F0A0F900BF1AE019E000201E
:102E9000174908600E4908600E4908600B49086030
:102EA000094908700120FFF7F9FD202347F230524D
:102EB0000121084602F058FF03E0012001F0FAFA70
:102EC00000BF00BF38BD00005A02002048020020A9
:102ED0004C02002050020020540200205802002022
:102EE0003E000000DE0100206C0800202E000000E3
:102EF00044020020BA0700200D0A4F4B2E0D0A0095
:102F00002DE9F0410024032000F021FE002868D0C4
:102F1000132875D0172802D01C287DD15DE003202E
:102F200000F0E2FD00F0010018B10121032002F0E1
:102F300007FE17203A490860032000F0DEFD041E5A
:102F40004AD00025A2B23749032002F047F936A043
:102F5000FEF76AFC3548006820443449086034486C
:102F6000407F002803DD214632A0FEF75DFC0025EE
:102F70002FE02C48465D0027334800887F2805DB7A
:102F8000002031490880084602F0CAFE31462E482A
:102F900002F0BEFE2C4800880E2819DB2A488078F3
:102FA00001062948C07801EB00412748007901EB70
:102FB0000021254840790844001D87B22248008836
:102FC000B84205D120480188801C02F0E3FB0027AD
:102FD0006D1CA542CDD300BF1EE00320FFF7EAFD24
:102FE0001AE00320FFF75AFD202341F28832012125
:102FF000032002F0B9FE0020094908600CE0FFE759
:10300000032001F057FA132005490860022142F617
:103010006870FDF7D4FE00BF00BFBDE8F08100007E
:10302000640200206C0C00202E0000005C020020D6
:10303000BA0700203E7365637320726563206C6578
:103040006E3A25640A0000002E160020FEB55021BD
:10305000FE48FDF7A4F8002000F079FDFC49087057
:103060000846007800287DD022287CD1002000F07E
:1030700044FDF849088000283EDD0846008840F2FB
:10308000B451884202DD0846F2490880F248F34B09
:103090000090F0480288ED49002002F00BF9EB485F
:1030A0000078462829D1E9484078492825D1E748C1
:1030B00080784E2821D1E548C07844281DD150227F
:1030C000E749E248FDF752F84620E04908704920F8
:1030D00048704E2088704420C8700822E1A1DB4867
:1030E0002130FDF767F8DC480088DF4B5022D749D4
:1030F0000090002002F066FC01E2D44800785328DA
:1031000059D1D2484078452855D1D04880785428A4
:1031100051D1CE48C07854284DD1CC480079D049FF
:1031200009798842E8D1C9484179CD48407981423E
:10313000E2D1C6488179CA4880798142DCD1C3484E
:10314000C179C748C0798142D6D1C048017AC44804
:10315000007A8142D0D1BD48417AC148407A81424B
:10316000CAD101E0CCE1D3E1C0A103C9CDE901019D
:10317000BB48B649C968C160B44909690161B3492E
:1031800049694161B1498969816103F0A7FB01A8DF
:10319000FDF71CF884B2B0480088B34B224601A961
:1031A0000090002002F00EFC4FF49670FFF7E4FC54
:1031B00002F00AF8A3E1A5480078462839D1A348CF
:1031C0004078492835D1A1488078522831D19F488C
:1031D000C0784D282DD19D480079A14909798842B0
:1031E0008AD19A4841799E484079814284D1974852
:1031F00081799B4880798142DCD19448C179984893
:10320000C0798142D6D19148017A9548007A8142AD
:10321000D0D18E48417A9248407A8142CAD18E48B4
:103220000088914B502289490090002002F0CAFB8F
:1032300065E18648007852283FD184484078452887
:103240003BD182488078532837D18048C0784528C0
:1032500033D17E480079824909798842AAD17B48D6
:1032600041797F4840798142A4D1784881797C486E
:10327000807981429ED17548C1797948C07981426F
:1032800098D17248017A7648007A814292D16F488B
:10329000417A7348407A81428CD16F480088724BE2
:1032A00050226A490090002002F08CFB4FF4967087
:1032B000FFF762FC01F088FF21E1644800785428A0
:1032C0007ED1624840785228FAD1604880784928F7
:1032D000F6D15E48C0784728F2D15C480079604951
:1032E00009798842A4D1594841795D4840798142A1
:1032F0009ED1564881795A488079814298D1534865
:10330000C1795748C079814292D15048017A5448D6
:10331000007A81428CD14D48417A5148407A8142AD
:1033200086D14A4CA77A3F2F19D154204C490870B6
:1033300052204870492088704720C870464800884D
:10334000494B50220090002002F03CFB502244499F
:103350002046FCF70BFF5020FFF70EFCFEBDE07A85
:103360000006217B40EA0140617B40EA0120A17B0D
:1033700040EA0105B5F5FA7F04D242F210708542A9
:1033800000D9EBE7E07B0006217C40EA0140617C4C
:1033900040EA0120A17C40EA01063148C0F82A50E9
:1033A000C0F82E602806A0722804E072280220735C
:1033B00065733006A0733004E0733002207400E0BF
:1033C0001DE0667454202649087052204870492038
:1033D00088704720C87020480088234B50220090F6
:1033E000002002F0EFFA50221D491848FCF7BEFEFB
:1033F00003F074FA5020FFF7BFFB00BF7FE01348D3
:10340000007844287BD111484078422877D10F4872
:103410008078552873D10D48C07847286FD10B4864
:1034200000790F490979884269D1084841790C48E7
:103430004079814263D10548817909488079814288
:103440005DD10248C1790648C07913E00A0800201E
:10345000FA010020FC01002002020020FE010020F1
:10346000BA07002043544300040200204F4B2B5363
:1034700045545400814242D12748017A2748007AB6
:1034800081423CD12448417A2448407A814236D155
:103490002148407F3F2814D1442020490870422011
:1034A0004870552088704720C8701D4800881D4B03
:1034B00050220090002002F085FA5020FFF75CFBBC
:1034C0004CE71548407F0A2800DD47E71248407F57
:1034D000124948774420087042204870552088706F
:1034E0004720C8700E4800880E4B502200900020E4
:1034F00002F068FA03F0F2F95020FFF73DFB07E015
:1035000000234CF250320221184602F02DFC00BF7D
:1035100000BF00BF22E700000A080020BA07002011
:10352000020200200402002070B506460D46002469
:1035300000BF1DE01148005D012800D117E004EB39
:10354000440101EBC4120D4908311144881C2A467C
:10355000B11CFCF70BFE04EB440000EBC41207485F
:1035600008301044457001200449085502E0641CED
:10357000082CDFDB00BF002070BD00008C11002094
:1035800010B52D4B1B6883432B4C2360231D1B68F8
:103590008343241D2360231D1B688343241D236054
:1035A000231D1B688343241D236011B101290ED103
:1035B00005E0214B1B6803431F4C236008E01E4BB2
:1035C0001B1D1B6803431C4C241D236000E000BF2F
:1035D00000BF32B1012A11D0022A1CD0032A27D100
:1035E00027E0154B08331B680343134C0834236052
:1035F000231D1B688343241D23601BE00E4B0833EF
:103600001B6883430C4C08342360231D1B68034351
:10361000241D23600EE0084B08331B680343064C4F
:1036200008342360231D1B680343241D236001E02D
:1036300000BF00BF00BF10BD00040140024909687F
:103640000143014A116070470004014001490860CC
:103650007047000014040140014604480068084017
:1036600008B1012070470020FCE70000140401406D
:1036700000B50346012200BF00F00CF802465B1EB5
:10368000012A01D1002BF7D1012A00D104221046D2
:1036900000BD000000200A49C96801F0010109B11C
:1036A00001200CE00649C96801F0100109B10320AE
:1036B00005E00349C96801F0040101B10220704727
:1036C0000020024000B50346012200BF00F00CF8C4
:1036D00002465B1E012A01D1002BF7D1012A00D13D
:1036E0000422104600BD000000200A49C96C01F008
:1036F000010109B101200CE00649C96C01F010017B
:1037000009B1032005E00349C96C01F0040101B1CE
:103710000220704700200240064A02EB901109681F
:1037200000F01F0301229A401143024B03EB901259
:1037300011607047002002400848006940F0800096
:103740000649086106480088B0F5007F04D908469C
:10375000006D40F0800008657047000000200240C6
:10376000E0F7FF1F30B5054639480088B0F5007F07
:103770004CD93848854220D24FF47020FFF778FFAB
:103780000446002C61D13448006940F002003249FF
:10379000086108464561006940F04000086100BFCB
:1037A00000BF4FF47020FFF763FF04462A4800690A
:1037B00020F002002849086147E04FF47020FFF72D
:1037C00081FF0446002C40D12348006D40F00200E8
:1037D0002149086508464565C06900F0020008B146
:1037E000084645611C48006D40F040001A490865D4
:1037F00000BF00BF4FF47020FFF764FF0446164877
:10380000006D20F00200144908651EE04FF470209E
:10381000FFF72EFF0446C4B90F48006940F00200CC
:103820000D49086108464561006940F040000861A3
:1038300000BF00BF4FF47020FFF71AFF0446064890
:10384000006920F0020004490861204630BD0000F4
:10385000E0F7FF1FFFFF0708002002400C48006947
:1038600000F0800020B10B48094948600A484860D0
:103870000A480088B0F5007F09D90548006D00F0BE
:10388000800020B1034802494864034848647047F7
:103890000020024023016745AB89EFCDE0F7FF1F11
:1038A00070B504460D4600262A480088B0F5007F12
:1038B00035D92948844219D24FF47020FFF7D8FE39
:1038C0000646002E43D12548006940F001002349F7
:1038D000086125604FF47020FFF7CAFE06461F48B6
:1038E000006920F001001D49086130E04FF47020AC
:1038F000FFF7E8FE064656BB1848006D40F0010091
:103900001649086525604FF47020FFF7DBFE064678
:103910001248006D20F001001049086517E04FF4CF
:103920007020FFF7A5FE06468EB90C48006940F0EE
:1039300001000A49086125604FF47020FFF798FEE6
:1039400006460648006920F0010004490861304637
:1039500070BD0000E0F7FF1FFFFF070800200240D6
:1039600070B504460D46E1B2054802F0DCFD00BF2B
:103970000721034802F029FE0028F9D0204670BD37
:103980000044004070B5054600243248854200D10D
:1039900003E03148854200D10124304931F8140058
:1039A00001F0E2FB2E4931F8140001F0DDFB2A485A
:1039B00085420AD12B4951F824302B4951F8240073
:1039C0000322182100F0C6FB09E0264951F82430F3
:1039D000254951F824000322182100F0BBFB23499C
:1039E00051F82430204951F824000322042100F02A
:1039F000B1FB284602F09CFD1648854205D14FF4E4
:103A00001651284602F042FD04E04FF4E131284609
:103A100002F03CFD0021284602F04CFE0021284621
:103A200002F038FE0021284602F024FE002128463C
:103A300002F0E4FD0021284602F0D6FD04212846CC
:103A400002F020FE0821284602F02CFE284602F053
:103A5000B7FD70BD0038014000440040A4020020C2
:103A6000880200208C0200209C020020940200208A
:103A700070B502460B460020002100BF0CE0041286
:103A80004FF6FF7505EA0020555C6540EDB2044E27
:103A900036F815506840491C9942F0DB70BD0000B3
:103AA0009003002010B5044604222146900102F044
:103AB000ADFE10BD0146024830F81100704700000D
:103AC0008407002010B50446042221464FF470609C
:103AD00002F09CFE10BD10B50446042221464FF4AE
:103AE000A06002F093FE10BD10B504464FF40271C1
:103AF00001EB4410FDF744F910BD70B504460025F4
:103B0000002600BF42F2086101EB4410FDF738F9CE
:103B1000064642F2087101EB4410FDF731F900EB63
:103B2000062086B27EB142F2086101EB4410FDF737
:103B300027F9054642F2087101EB4410FDF720F920
:103B400000EB052085B2B542DCD1284670BD10B52A
:103B500004464FF4427101EB4410FDF711F910BD1A
:103B600070B504460025002600BF42F2080101EBB3
:103B70004410FDF705F9064642F2081101EB441026
:103B8000FDF7FEF800EB062086B27EB142F2080196
:103B900001EB4410FDF7F4F8054642F2081101EB81
:103BA0004410FDF7EDF800EB052085B2B542DCD1FD
:103BB000284670BD70B5104D002405E029780F48E7
:103BC00001556D1C601C84B2502CF7D3FDF7A2FD8B
:103BD0000A48001F0A490A68426089880181094D24
:103BE000002406E028780549091F08556D1C601C53
:103BF00084B2042CF6DB70BD00F00008BE07002084
:103C00001802002000F800080246002100BF0AE068
:103C10000748405C012805D111700548203000EBB1
:103C2000C1007047491C2029F2DB0020F9E70000A1
:103C30003417002070B505460E46082D35D2DFE852
:103C400005F0040A10161C22282E01211F4800F03E
:103C5000D7FA044631E002211C4800F0D1FA0446AC
:103C60002BE00421194800F0CBFA044625E0082196
:103C7000164800F0C5FA04461FE01021134800F072
:103C8000BFFA044619E02021104800F0B9FA0446B2
:103C900013E040210D4800F0B3FA04460DE0802106
:103CA0000A4800F0ADFA044607E02A46084909A090
:103CB000FDF7BAFD4FF0FF3070BD00BF14B9002012
:103CC0003070F9E70120307000BFF5E700100140C7
:103CD000996A010825732070696E3A25640A00000C
:103CE00010B540F2046001F03FFA40F2036001F0C9
:103CF0003BFA012303220421934800F02BFA02230C
:103D000003220421904800F025FA042303221946D7
:103D10008D4800F01FFA0823032204218A4800F08E
:103D200019FA102303220421874800F013FA2023F4
:103D300003220421844800F00DFA402303220421C9
:103D4000814800F007FA8023032204217E4800F016
:103D500001FA0120FFF772FC02221146062000F052
:103D600059FF0021022000F087F9022200210120E2
:103D7000FFF706FC0120FFF769FC0220FFF75EFC5D
:103D800002221146072000F045FF0121022000F029
:103D900073F9022200211046FFF7F2FB0220FFF721
:103DA00055FC0420FFF74AFC02221146082000F0CF
:103DB00031FF0221084600F05FF9022200210420B1
:103DC000FFF7DEFB0420FFF741FC0820FFF736FC7D
:103DD00002221146092000F01DFF0321022000F0FD
:103DE0004BF9022200210820FFF7CAFB0820FFF749
:103DF0002DFC1020FFF722FC022211460A2000F0C1
:103E000009FF0421022000F037F9022200211020CE
:103E1000FFF7B6FB1020FFF719FC2020FFF70EFC80
:103E200002221146172000F0F5FE0521022000F0C5
:103E300023F9022200212020FFF7A2FB2020FFF718
:103E400005FC4020FFF7FAFB02221146172000F084
:103E5000E1FE0621022000F00FF90222002140209D
:103E6000FFF78EFB4020FFF7F1FB8020FFF7E6FB1A
:103E700002221146172000F0CDFE0721022000F09B
:103E8000FBF8022200218020FFF77AFB8020FFF759
:103E9000DDFB1023032219462C4800F05BF94FF498
:103EA000805303221021284800F054F94FF4006396
:103EB00003221021244800F04DF94FF480630322BF
:103EC0001021214800F046F90123032210211F4848
:103ED00000F040F90223032210211C4800F03AF9B7
:103EE0004FF4807303221021174800F033F94FF488
:103EF000007303221021144800F02CF910211348FC
:103F000000F0B0F84FF480510F4800F0ABF84FF4D8
:103F100000610D4800F0A6F84FF480610A4800F0F7
:103F2000A1F80121094800F09DF80221074800F09E
:103F300099F84FF48071044800F094F84FF4007140
:103F4000014800F08FF810BD00100140000C014046
:103F500070B505460C46082D70D2DFE805F0041058
:103F60001E2C3A465260002C04DD1021374800F028
:103F70007BF803E01021354800F074F864E0002C71
:103F800005DD4FF48051324800F06EF804E04FF444
:103F900080512F4800F066F856E0002C05DD4FF404
:103FA00000612B4800F060F804E04FF400612848FD
:103FB00000F058F848E0002C05DD4FF480612448FB
:103FC00000F052F804E04FF48061214800F04AF814
:103FD0003AE0002C04DD01211C4800F045F803E024
:103FE00001211A4800F03EF82EE0002C04DD0221E9
:103FF000164800F039F803E00221144800F032F8C6
:1040000022E0002C05DD4FF48071114800F02CF8FF
:1040100004E04FF480710E4800F024F814E0002C06
:1040200005DD4FF400710A4800F01EF804E04FF47B
:104030000071074800F016F806E0FFE72A46054938
:1040400005A0FDF7F1FB00BF00BF70BD000C0140F3
:1040500000100140836A01082573206F75743A25AA
:10406000640A000041617047016170470AB1016153
:1040700000E041617047000010B500228B071C0F63
:104080000F2303FA04F204290EDA204B9B689343B2
:104090001E4CA36023469B688C07240F00FA04F48F
:1040A00023431A4CA3602FE008290EDA174BDB6874
:1040B0009343164CE3602346DB688C07240F00FA19
:1040C00004F42343114CE3601EE00C290EDA0F4B7D
:1040D0001B6993430D4C236123461B698C07240FF6
:1040E00000FA04F42343094C23610DE0074B5B699C
:1040F0009343064C636123465B698C07240F00FAE7
:1041000004F42343014C636110BD00000000014032
:1041100010B540F2036001F027F840F2026001F0B0
:1041200023F8FDF767F84FF40073032210210748C6
:1041300000F010F84FF400710448FFF793FF1023CC
:1041400003224821024800F005F810BD000C014090
:1041500000080140F0B5044616460025002201F093
:104160000F0501F0100707B1354300201EE00127BD
:1041700087401F40C7B122684FEA800C0F2707FA1B
:104180000CF7BA43870005FA07F73A43282904D108
:10419000012787401F40676105E0482903D10127B7
:1041A00087401F4027612260471CB8B20828DED331
:1041B000082022E0012787401F40E7B16268A0F194
:1041C00008074FEA870C0F2707FA0CF7BA43A0F14C
:1041D0000807BF0005FA07F73A43282904D1012749
:1041E00087401F40676105E0482903D101278740C8
:1041F0001F4027616260471CB8B21028DAD3F0BDB7
:1042000002469068084008B1012070470020FCE792
:10421000F0B50A46002300240021002500F00046E6
:10422000B6F1004F02D11D4EF16901E01B4E7168DD
:10423000C0F3034583B200F44016B6F5401F08D121
:1042400021F07061154E766826F07066134F7E601F
:1042500012E000F48016B6F5801F06D1032606FA98
:1042600005F4A14341F0706106E0460D360103FA02
:1042700006F6B14341F0706122B1460D360103FAF2
:1042800006F6314300F00046B6F1004F02D1034E6E
:10429000F16101E0014E7160F0BD000000000140DD
:1042A00010B5002002F0A0FA10BD10B5012002F0F8
:1042B0009BFA10BD10B540F2036000F055FF40F2CC
:1042C000127000F051FF4FF4806303221821094857
:1042D000FFF740FF4FF40063032228210548FFF752
:1042E00039FF4FF48053032210210248FFF732FFB9
:1042F00010BD0000000C014000200649087008466F
:104300000078054901EBC0000249486001200349DB
:1043100008707047EC05002094050020F40500208B
:1043200010B540F2026000F01FFF012303221021AC
:104330000348FFF70FFF01210148FFF795FE10BD6D
:104340000008014010B5044624B1012C08D0022C0D
:1043500007D100E005E001210348FFF785FE00E0FA
:1043600000BF00BF10BD00000008014010B50446AA
:1043700024B1012C08D0022C07D100E005E0012176
:104380000348FFF76FFE00E000BF00BF10BD000054
:104390000008014010B52748006898B1254800681A
:1043A000B0F5FA7F04D201212348FFF75DFE03E058
:1043B00001212148FFF756FE1E480068401E1D4996
:1043C000086003E04FF47A701A4908601B480068DF
:1043D000401C1A49086000F001FD194800780128C6
:1043E00018D11848006880B1164800681649096855
:1043F00088420AD115A0FDF717FA00F041F9002014
:104400000F49087001201A4908700E480068401CC6
:104410000C490860174800684EF66021884203D9AD
:1044200000201549086004E012480068401C11494A
:10443000086010BD88000020000801401000002026
:104440005A000020600000205C0000204F6E206DAC
:1044500061676E657469635F676174655F626565F6
:10446000705F64656C61795F74696D65200A000036
:1044700064000020080000200C00002070B50446F5
:1044800024B1012C10D0022C0FD100E00DE001214D
:104490000748FFF7B5FEC0F10100C5B22A46012169
:1044A0000348FFF7E3FD00E000BF00BF70BD000060
:1044B0000008014070B504464FF4427101EB44100E
:1044C000FCF75EFC132811D14FF4847101EB44100A
:1044D0000221FCF774FC00BF4FF4847101EB44101F
:1044E000FCF74EFC0028F7D1012500E00025284606
:1044F00070BD00006048B0F93A00401C10B35E483F
:10450000B0F93C00401CE8B15B48B0F93E00401CEB
:10451000C0B15948B0F94000401C98B15648B0F9B4
:104520004200401C70B15448B0F94400401C48B1EE
:104530005148B0F94600401C20B14F48B0F948003E
:10454000401CC0BB4D48408800B24B4948874B488F
:10455000408900B288874948408A00B2C8874748E6
:10456000408B00B2A1F840004448408C00B2A1F852
:1045700042004248408D00B2A1F844003F48408EBE
:1045800000B2A1F846003D48408F00B2A1F84800B3
:104590003A48B0F8420000B2A1F84A003748B0F8F3
:1045A0004A0000B2A1F84C003448B0F8520000B202
:1045B000A1F84E007047FFE72F48408F2F498880B1
:1045C0000846808848802C48808F81B22B488181A2
:1045D000818941812848C08F81B228488182818A9F
:1045E00041822548B0F8400081B224488183818B04
:1045F00041832148B0F8420081B220488184818CF7
:1046000041841D48B0F8440081B21C488185818DE9
:1046100041851948B0F8460081B218488186818EDC
:1046200041861548B0F8480081B214488187818FCF
:1046300041871148B0F84A0081B21048A0F84410F0
:10464000B0F84410A0F842100B48B0F84C0081B20A
:104650000A48A0F84C10B0F84C10A0F84A100648D0
:10466000B0F84E0081B20548A0F85410B0F85410CC
:10467000A0F8521000BF9DE7BA0700209405002063
:1046800010B501210420FFF763FC02A0FDF7CCF870
:1046900010BD00006D61676E6574696320676174A9
:1046A000652062656570206F6E0A00008AB000BFE9
:1046B0004FF4FA794FF0000A0020099000250026F7
:1046C00008900024EF49087001F042FD00F09AFACA
:1046D00040F61E1000F036FD28B100F097FC0120D6
:1046E000E949087002E00020E749087040F20360E1
:1046F00000F03AFD40F2026000F036FD4FF4C06079
:1047000000F032FD0121E148FFF782FDFCF738FCA3
:10471000FFF706FEDE48FFF735F9DE48FFF732F90E
:10472000FFF7C8FD4FF4E13201210820FEF7E0F960
:10473000D94801F0F5FAD94801F0F2FA002005E075
:104740000021D74A1154D74A1154401C0828F7DBDE
:1047500040F20531CF4801F05BFF40F20531D2480D
:1047600001F056FF00221146252000F053FA0222E4
:104770000021272000F04EFA002000F051FC0746EF
:104780003946CAA0FDF750F8FFF7C2FC0120CC491A
:10479000487700F09DFFFFF70DFAC948B0F94E00C9
:1047A000C749B1F94C10C64AB2F94A20C44BB3F913
:1047B0004830CDE90432CDE90610C148B0F94620B1
:1047C000B0F94400BE49B1F94210BD4BB3F94030D5
:1047D000CDE90031CDE90202B948B0F93E30B0F977
:1047E0003C20B0F93A10B7A0FDF71EF8B448B0F974
:1047F0004E004FF47A714843BE490860FFF770FAE3
:10480000AF48C07AAE49897A40EA0128AC48407F77
:10481000012803D14146B8A0FDF706F840F209107F
:1048200080450DD00120A64988720921A448C17293
:10483000007BFF2802D101F08FF901E002F094F82B
:10484000FFF758FE9E48007BFF2804D101F084F951
:10485000ADA0FCF7E9FFFCF703FB012802D1B0494A
:10486000087002E00020AE49087001F0C9F901F0BB
:1048700089FF85480078012802D1AAA0FCF7D4FF5F
:10488000ABA2AEA1B0A0FCF7CFFF002000F002FF6A
:10489000012000F0FFFE022000F0FCFE032000F0EB
:1048A000F9FE042000F0F6FE052000F0F3FE0620DD
:1048B00000F0F0FE072000F0EDFE01F059FFFCF7DC
:1048C00077FDFFF719FD0020A4490860FCF790FA76
:1048D000FCF75AFCD4E0A248007808B9FEF77EF94C
:1048E000FEF70EFB9F48006800F0010008B9FEF7D4
:1048F000ADFB9C4800680621B0FBF1F201FB120001
:1049000038B9FEF70DFA96480078012801D101F078
:1049100025FF94480068401C9249086008A801F0EF
:10492000D1FE06462EB33078092818D2DFE800F011
:1049300017051717171112090D00304600F02CFB50
:1049400011E0304600F0ACFA0DE0304600F0DCFA41
:1049500009E000BF3178304600F0C8F903E082A0DA
:10496000FCF762FF00BF00BF00204D499DF82020EA
:1049700088547C4800680A21B0FBF1F201FB120068
:10498000012837D108A8FFF73FF9044694B394F9FA
:104990000000002829DB94F90100002825DB77A21C
:1049A00007CA05AB07C30B27A0788DF81A00E0787B
:1049B0008DF81B0060788DF81C00B91E05A8FBF768
:1049C000CDFF83464FEA1B21B81E05AA1154781E5D
:1049D00002F800B0394605A800F0D6FF6A48006822
:1049E00010B969496068086000BF002067499DF8F8
:1049F00020208854B9F1000F12D14FF4FA7964489D
:104A0000007868B9BAF1010F05D14FF0020A002011
:104A100001F0D8FE04E04FF0010A012001F0D2FEBF
:104A2000A9F101095B4805685B480068A84204D801
:104A300059480068281A099006E058480068284438
:104A400055490968401A099044F26821099888423A
:104A500015D953480078012811D1FEF739F8002004
:104A60004F4908704B4800684B49086008462A4681
:104A700003684B4801784BA0FCF7D6FE00E000BF6E
:104A800029E70000E80200204C000020000230006E
:104A90000044004000380140AC1500202E160020D4
:104AA0006C0D00208C110020004800400D0A434B83
:104AB0005F5359532069732025640D0A00000000DC
:104AC000BA070020506172616D65746572733A2592
:104AD000642C25642C25642C25642C25642C2564E9
:104AE0002C25642C25642C25642C25642C2564201D
:104AF0000A0000005C00002056657273696F6E3A10
:104B000025780D0A00000000536574206465666115
:104B1000756C74206E6574776F726B0A000000000C
:104B20004D000020697764672072657365740A0020
:104B300031383A34393A3539000000004D61792076
:104B400032392032303236000D0A4275696C6420E9
:104B50006174202573202025730D0A0014000020A5
:104B6000DE010020480000204E6F6E6520646566FF
:104B7000696E6520747970650A000000FF000542C7
:104B800000000000000000008C000020341700200E
:104B90000400002010000020200000201C00002045
:104BA0002500002074696D65206F75742068625F50
:104BB000656E61626C653A25642C2564202564204D
:104BC0000A00000010B50446E1B2064801F0ABFC53
:104BD00000BF0721034801F0F8FC0028F9D0204667
:104BE00010BD00000038014070B505460E46002497
:104BF00003E0285DFFF7E6FF641CB442F9DB002008
:104C000070BD000010B50249C80200F063F810BD85
:104C1000000001082DE9F04103460D461646002428
:104C20000027A0462448006800F4E060B0F5A06FBB
:104C300015D006DCB0F5407F18D0B0F5806F19D1E3
:104C400010E0B0F5C06F06D0B0F5E06F12D10027CC
:104C50004FF0040815E001274FF0030811E0022788
:104C6000B8460EE003274FF001080AE004274FF092
:104C7000000806E04FF4A06000F022F80227B846D2
:104C800000BF00BFC7F1040005FA00F4C8F1040139
:104C90000F20C8403040044324010848C45403F0A6
:104CA0001F01012088405911890001F1E021C1F85C
:104CB0000001BDE8F08100000CED00E000E400E040
:104CC00002490143024A1160704700000000FA05E2
:104CD0000CED00E0034A0A400243034B1A60BFF3A5
:104CE0004F8F704780FFFF1F08ED00E02DE9F04770
:104CF00090B00646884606F1020A7778342103A868
:104D0000FBF74DFA2E4AD2E900109268CDE9010274
:104D10000091362F00DD3627F81CC5B228128DF819
:104D200001008DF80250A81DC4B2B8F1050F03D0E0
:104D3000B8F1060F3AD11CE001208DF806003A4682
:104D400051460DF10700FBF711FAA11E6846FBF76B
:104D500005FE81464FEA1921A01E0DF8001009F04A
:104D6000FF01601E0DF800102146684600F00CFEA1
:104D700021E002208DF806003A4651460DF1070069
:104D8000FBF7F4F9A11E6846FBF7E8FD81464FEA00
:104D90001921A01E0DF8001009F0FF01601E0DF88A
:104DA00000102146684600F0EFFD04E0414605A0F2
:104DB000FCF73AFD00BF00BF10B0BDE8F08700006F
:104DC000106A0108556B6E6F7720756172742074DC
:104DD000657374203A253032580A000038B5002433
:104DE00049E0264800EBC4004078012841D100206A
:104DF000009069462046FEF71DFF204800EBC400E6
:104E000040889DF8001041EA400000B21B4901EBC8
:104E1000C4014880194800EBC400406808281EDD22
:104E2000164800EBC400408848B90020134901EB44
:104E3000C4014870214612A0FCF7F6FC0FE00F48B1
:104E400000EBC400B0F90200401C40B900200B493F
:104E500001EBC401487021460DA0FCF7E5FC0748B2
:104E600000EBC4004068401C044901EBC4014860E9
:104E700000BF601CC4B2082CB3DB38BD4406002060
:104E80006770695F25642066616C6C696E670A00F3
:104E90006770695F256420726973696E670A000034
:104EA000F0B5A1B00446A71C802101A8FBF777F953
:104EB00065782A46394601A8FBF758F90BA0FCF79C
:104EC000B3FC002605E001A8815D0DA0FCF7ACFC59
:104ED000761CAE42F7DB294601A8FDF749F9002808
:104EE00001DD21B0F0BD00BFFBE7000070726F6311
:104EF0006573735F7263765F636D643A0A200000C6
:104F00002530325820000000F0B5A1B00446A71C9F
:104F1000802101A8FBF743F965782A46394601A8A4
:104F2000FBF724F940F2A9330C4A0DA10FA0FCF7BE
:104F30007BFC002605E001A8815D15A0FCF774FC50
:104F4000761CAE42F7DB294601A8FDF7ABF9002835
:104F500001DD21B0F0BD00BFFBE700001C6A0108C5
:104F60002E2E5C6D61696E2E630000007273323309
:104F7000322070726F636573735F7263765F636D07
:104F8000643A2025732F25732F25640A2000000022
:104F9000253032582000000070B5A0B00646B41C81
:104FA00080216846FBF7FBF820780006617800EB6B
:104FB0000140A17800EB0120E1780844001D85B292
:104FC0002A4621466846FBF7D1F829466846FDF790
:104FD00009FA002801DD20B070BD00BFFBE770B505
:104FE000A2B005460C4616468DF80460E0B28DF876
:104FF0000500224629460DF10600FBF7B7F8A1B2DD
:1050000001A801F077FB22B070BD00000348406AA0
:1050100040F0807001494862704700000010024073
:105020002DE9F04F8BB00746002009903EA090E894
:10503000004CC068CDE905BECDF810A007900FF276
:10504000EC0ADAE9000ACDE9020A0FF2E00ADAE92D
:10505000000ACDE9000A38484068C0F381000A9090
:105060000A9820B1012804D0022829D103E033494D
:1050700028E0324926E03048406800F48038B8F52E
:10508000803F09D12D4C2C48406800F40039B9F517
:10509000003F02D1641000E0294C27484068C0F36B
:1050A00083422548406800F0006008B142F01002D9
:1050B0000F2A01D2921C00E0521C04FB02F101E015
:1050C0001E4900BF00BF1C484068C0F3031504A878
:1050D000465D21FA06F318484068C0F3022502A88D
:1050E000465D23FA06FC14484068C0F3C2251DF84B
:1050F000056023FA06F0089037B1012F06D0022F81
:1051000006D0032F0AD106E0099108E0099306E0D2
:10511000CDF824C003E00898099000E000BF00BF6C
:1051200009980BB0BDE8F08F0000000000000000FF
:1051300001020304060708090010024000127A0069
:1051400000093D000146074A02EB9110006801F09A
:105150001F0301229A40104008B10120704700202F
:10516000FCE7000000100240064A02EB90110968BB
:1051700000F01F0301229A401143024B03EB9012EF
:105180001160704700100240064A02EB9011096856
:1051900000F01F0301229A409143024B03EB90124F
:1051A0001160704700100240064A02EB9011096836
:1051B00000F01F0301229A401143024B03EB9012AF
:1051C000116070470010024002480349086000BFA8
:1051D000FEE700000400FA050CED00E02DE9F041C7
:1051E00004460E4615460027002D15DD2A46314699
:1051F000204600F015F84FF4847101EB4410402173
:10520000FBF7DDFD00BF4FF4847101EB4410FBF7A9
:10521000B7FD0028F7D12F463846BDE8F0810000E1
:105220002DE9F04104460F4616460025A8462EB942
:10523000214618A0FCF7F8FABDE8F08142F6080113
:1052400001EB4410FBF79CFD054642F6081101EB0B
:105250004410FBF795FD00EB052085B2280200EB1A
:10526000441000F1180832463946404601F0CEFAA3
:10527000A81985B2290A42F6080202EB4410FBF78E
:105280009EFDE9B242F6081202EB4410FBF797FDCF
:1052900000BFD1E743483A20256420556E657870F9
:1052A000656374656432206C656E67746820300DC8
:1052B0000A0000002DE9FC5F05468A4691461E461D
:1052C000DDF8308000270024A346B9F1000F7CDD13
:1052D00042F6080101EB4510FBF752FD044642F689
:1052E000081101EB4510FBF74BFD00EB042084B2E5
:1052F000200200EB451000F1180B082101EB4510CE
:10530000FBF73EFD00F00700022804D0032844D03C
:10531000042879D179E008226946584601F076FAE6
:1053200004F1080084B29DF8000030709DF801007F
:1053300070709DF80200B0709DF80300F0709DF849
:105340000400A8F800009DF8050098F8001000EB94
:105350000120A8F800009DF806709DF8070000EBFA
:10536000072087B2200200EB451000F1180B3A46E7
:105370005146584601F04AFAE01984B2210A42F631
:10538000080202EB4510FBF71AFDE1B242F60812E3
:1053900002EB4510FBF713FD6BE006226946584609
:1053A00001F034FAA01D84B29DF8000030709DF821
:1053B000010070709DF80200B0709DF80300F0705D
:1053C0009DF804709DF8050000E063E000EB072005
:1053D00087B2200200EB451000F1180B3A46514607
:1053E000584601F013FAE01984B2210A42F6080285
:1053F00002EB4510FBF7E3FCE1B242F6081202EBC8
:105400004510FBF7DCFC34E032E0022269465846E6
:1054100001F0FCF9A01C84B29DF800709DF8010019
:1054200000EB0720801E87B240F2EA50874204DD7D
:105430001AA0FCF7F9F900BFFEE7200200EB4510C7
:1054400000F1180B3A465146584601F0DFF9E019D1
:1054500084B2210A42F6080202EB4510FBF7AFFCCA
:10546000E1B242F6081202EB4510FBF7A8FC00E09F
:1054700000BF00BF4FF4847101EB45104021FBF7E2
:105480009EFC00BF4FF4847101EB4510FBF778FCE4
:105490000028F7D13846BDE8FC9F000064617461C4
:1054A0005F6C656E206F76657220313531340D0A80
:1054B000000000002DE9F041A0B0044688461746E0
:1054C00080216846FAF76BFE0025FDF7CFFA002829
:1054D00002DA20B0BDE8F0810E2225496846FAF7CD
:1054E00045FE200E8DF80A00200C8DF80B00200AD6
:1054F0008DF80C00E0B28DF80D0001208DF80E0043
:105500008DF80F0041208DF810000E208DF811004D
:105510003A4641460DF11200FAF728FE07F112054E
:10552000281F000A8DF80200281FC0B28DF8030062
:1055300010A0FCF779F9002605E01DF8061011A06F
:10554000FCF772F9761CAE42F7DB10A0FCF76CF9A1
:105550000F48407F002804DD2A460EA10020FCF7FA
:105560007DF82946684600F0F1F900BFB1E7000078
:105570004B6A0108533246313820446174610D0A88
:105580000000000020253032780000000D0A0000E5
:10559000BA0700207265706F72745F533246323200
:1055A000202C207061636B65745F6C656E5B256495
:1055B0005D20200A0000000070B5A0B004468021E4
:1055C0006846FAF7ECFD00250E2220496846FAF7F6
:1055D000CDFD200E8DF80A00200C8DF80B00200A5E
:1055E0008DF80C00E0B28DF80D0041208DF80E0012
:1055F00001208DF80F0000208DF810001125281FC4
:10560000000A8DF80200281FC0B28DF8030010A018
:10561000FCF70AF9002605E01DF8061010A0FCF7BB
:1056200003F9761CAE42F7DB0FA0FCF7FDF80F483C
:10563000407F002804DD2A460DA10020FCF70EF86B
:105640002946684600F082F920B070BD596A010809
:10565000533246323220446174610D0A000000006A
:1056600020253032780000000D0A0000BA07002023
:105670007265706F72745F5332463232202C207024
:1056800061636B65745F6C656E5B25645D20200AE9
:10569000000000000246C31700EB5373DB10A0EBC1
:1056A000C3010022094B03EBC1035A6045F6A52252
:1056B000064B03EBC1035A800022044B03EBC103EA
:1056C0005A70FF22014B03F8312070474406002036
:1056D00010B54FF400710848FEF7C4FCC820FDF770
:1056E0004BFA4FF400710448FEF7BEFC4FF41670FD
:1056F000FDF742FA10BD0000000C014003480068AD
:1057000040F0100001490860704700000428004084
:105710000348006820F0100001490860704700004D
:1057200004280040002003490868091F096840EA6E
:10573000014070471C28004000B50246FFF7DEFF1D
:10574000100C0449086090B2091D0860FFF7E0FFE3
:1057500000BD000018280040024909688143014A41
:105760001160704704280040014604480068084062
:1057700008B1012070470020FCE700000428004029
:1057800000BF0348006800F020000028F9D07047EF
:105790000428004030B5A1B005460C4601208DF824
:1057A0000000E0B28DF80100224629460DF102000A
:1057B000FAF7DCFC2146684600F09CFF024800F046
:1057C000AFFA21B030BD00002E1600202DE9F047C1
:1057D00004468846164600250027A9462046FEF7BF
:1057E00069F9B04204DA2046FEF764F9074600E0A2
:1057F000374600BF2046FEF7B3F981464FF44271A9
:1058000001EB4410FBF7BCFA0546172D03D01C2D05
:1058100001D0002701E0B945ECDB00BF3A46414624
:10582000204600F049F84FF4847101EB4410202128
:10583000FBF7C5FA00BF4FF4847101EB4410FBF78E
:105840009FFA0028F7D113E04FF4427101EB4410A6
:10585000FBF796FA0546172D0AD01C2D08D011A08B
:10586000FBF7E2FF2046FDF719F90020BDE8F087BD
:105870004FF4027101EB4410FBF782FA00F01000C4
:105880001028E1D14FF4027101EB44101021FBF715
:1058900096FA4FF4027101EB44101021FBF78FFAD6
:1058A0003846E3E753454E445F4F4B2050726F62DA
:1058B0006C656D21210D0A002DE9F04104460F466B
:1058C00016460025A8462EB9214618A0FBF7ACFFC6
:1058D000BDE8F08142F2084101EB4410FBF750FAB9
:1058E000054642F2085101EB4410FBF749FA00EB80
:1058F000052085B2280200EB441000F11008324662
:105900003946404600F0B6FFA81985B2290A42F28E
:10591000084202EB4410FBF752FAE9B242F2085295
:1059200002EB4410FBF74BFA00BFD1E743483A20A3
:10593000256420556E657870656374656431206CEC
:10594000656E67746820300D0A0000002DE9F04193
:1059500004460D460B480068172810D12A462146F8
:105960000320FFF733FF064646B90320FEF7EFF8A2
:1059700007464FF0FF300349086000BF00BFBDE895
:10598000F0810000640200202DE9F04104460D463C
:105990000B480068172810D12A4621460220FFF73D
:1059A00015FF064646B90220FEF7D1F807464FF02C
:1059B000FF300349086000BF00BFBDE8F081000070
:1059C000A40000202DE9F0470446894616461D46EE
:1059D000089F4FF000082046FEF76CF8B04204DA4A
:1059E0002046FEF767F8804600E0B046287828B9E0
:1059F000687818B9A87808B9E87800B117B94FF0F5
:105A0000000863E0297840F6084202EB4410FBF7F7
:105A1000D6F9697840F6085202EB4410FBF7CFF94B
:105A2000A97840F6086202EB4410FBF7C8F9E97860
:105A300040F6087202EB4410FBF7C1F9390A41F253
:105A4000080202EB4410FBF7BAF9F9B241F208126E
:105A500002EB4410FBF7B3F9424649462046FFF7F4
:105A60002BFF4FF4847101EB44102021FBF7A7F9C1
:105A700000BF4FF4847101EB4410FBF781F900285B
:105A8000F7D112E04FF4027101EB4410FBF778F903
:105A900000F0080048B14FF4027101EB44101821E6
:105AA000FBF78DF90020BDE8F0874FF4027101EBA0
:105AB0004410FBF765F900F010001028E2D14FF414
:105AC000027101EB44101021FBF779F94046EAE737
:105AD00010B5044604222146900100F0CBFE10BD13
